{
  "contractName": "ProductMarketplace",
  "abi": [
    {
      "anonymous": false,
      "inputs": [
        {
          "indexed": true,
          "internalType": "address",
          "name": "seller",
          "type": "address"
        },
        {
          "indexed": false,
          "internalType": "uint256",
          "name": "amount",
          "type": "uint256"
        }
      ],
      "name": "FundsWithdrawn",
      "type": "event"
    },
    {
      "anonymous": false,
      "inputs": [
        {
          "indexed": false,
          "internalType": "uint256",
          "name": "productId",
          "type": "uint256"
        },
        {
          "indexed": false,
          "internalType": "string",
          "name": "name",
          "type": "string"
        },
        {
          "indexed": false,
          "internalType": "uint256",
          "name": "price",
          "type": "uint256"
        },
        {
          "indexed": true,
          "internalType": "address",
          "name": "seller",
          "type": "address"
        }
      ],
      "name": "ProductAdded",
      "type": "event"
    },
    {
      "anonymous": false,
      "inputs": [
        {
          "indexed": false,
          "internalType": "uint256",
          "name": "productId",
          "type": "uint256"
        },
        {
          "indexed": false,
          "internalType": "uint256",
          "name": "newPrice",
          "type": "uint256"
        }
      ],
      "name": "ProductPriceUpdated",
      "type": "event"
    },
    {
      "anonymous": false,
      "inputs": [
        {
          "indexed": false,
          "internalType": "uint256",
          "name": "productId",
          "type": "uint256"
        },
        {
          "indexed": true,
          "internalType": "address",
          "name": "buyer",
          "type": "address"
        }
      ],
      "name": "ProductPurchased",
      "type": "event"
    },
    {
      "anonymous": false,
      "inputs": [
        {
          "indexed": false,
          "internalType": "uint256",
          "name": "productId",
          "type": "uint256"
        },
        {
          "indexed": false,
          "internalType": "bool",
          "name": "isSold",
          "type": "bool"
        }
      ],
      "name": "ProductSoldStatusChanged",
      "type": "event"
    },
    {
      "anonymous": false,
      "inputs": [
        {
          "components": [
            {
              "internalType": "uint256",
              "name": "id",
              "type": "uint256"
            },
            {
              "internalType": "string",
              "name": "name",
              "type": "string"
            },
            {
              "internalType": "uint256",
              "name": "price",
              "type": "uint256"
            },
            {
              "internalType": "address payable",
              "name": "seller",
              "type": "address"
            },
            {
              "internalType": "bool",
              "name": "isSold",
              "type": "bool"
            }
          ],
          "internalType": "struct ProductMarketplace.Product[]",
          "name": ""
        }
      ],
      "name": "ProductsFetched",
      "type": "event"
    },
    {
      "inputs": [],
      "name": "nextProductId",
      "outputs": [
        {
          "internalType": "uint256",
          "name": "",
          "type": "uint256"
        }
      ],
      "stateMutability": "view",
      "type": "function",
      "constant": true
    },
    {
      "inputs": [
        {
          "internalType": "uint256",
          "name": "",
          "type": "uint256"
        }
      ],
      "name": "products",
      "outputs": [
        {
          "internalType": "uint256",
          "name": "id",
          "type": "uint256"
        },
        {
          "internalType": "string",
          "name": "name",
          "type": "string"
        },
        {
          "internalType": "uint256",
          "name": "price",
          "type": "uint256"
        },
        {
          "internalType": "address payable",
          "name": "seller",
          "type": "address"
        },
        {
          "internalType": "bool",
          "name": "isSold",
          "type": "bool"
        }
      ],
      "stateMutability": "view",
      "type": "function",
      "constant": true
    },
    {
      "inputs": [
        {
          "internalType": "string",
          "name": "_name",
          "type": "string"
        },
        {
          "internalType": "uint256",
          "name": "_price",
          "type": "uint256"
        }
      ],
      "name": "addProduct",
      "outputs": [],
      "stateMutability": "nonpayable",
      "type": "function"
    },
    {
      "inputs": [
        {
          "internalType": "uint256",
          "name": "productId",
          "type": "uint256"
        }
      ],
      "name": "purchaseProduct",
      "outputs": [],
      "stateMutability": "payable",
      "type": "function",
      "payable": true
    },
    {
      "inputs": [
        {
          "internalType": "uint256",
          "name": "productId",
          "type": "uint256"
        },
        {
          "internalType": "uint256",
          "name": "_newPrice",
          "type": "uint256"
        }
      ],
      "name": "updateProductPrice",
      "outputs": [],
      "stateMutability": "nonpayable",
      "type": "function"
    },
    {
      "inputs": [],
      "name": "withdrawFunds",
      "outputs": [],
      "stateMutability": "nonpayable",
      "type": "function"
    },
    {
      "inputs": [],
      "name": "getAllProducts",
      "outputs": [],
      "stateMutability": "nonpayable",
      "type": "function"
    },
    {
      "inputs": [],
      "name": "fetchAllProducts",
      "outputs": [
        {
          "components": [
            {
              "internalType": "uint256",
              "name": "id",
              "type": "uint256"
            },
            {
              "internalType": "string",
              "name": "name",
              "type": "string"
            },
            {
              "internalType": "uint256",
              "name": "price",
              "type": "uint256"
            },
            {
              "internalType": "address payable",
              "name": "seller",
              "type": "address"
            },
            {
              "internalType": "bool",
              "name": "isSold",
              "type": "bool"
            }
          ],
          "internalType": "struct ProductMarketplace.Product[]",
          "name": "",
          "type": "tuple[]"
        }
      ],
      "stateMutability": "view",
      "type": "function",
      "constant": true
    }
  ],
  "bytecode": "0x608060405234801561000f575f80fd5b506118f88061001d5f395ff3fe60806040526004361061007a575f3560e01c80637acc0b201161004d5780637acc0b20146100f05780638495ab86146101305780639c3bddb21461015a578063b15247d9146101825761007a565b806302ee3a521461007e57806324600fc31461009457806338e76a03146100aa5780634de91a63146100c6575b5f80fd5b348015610089575f80fd5b506100926101aa565b005b34801561009f575f80fd5b506100a86103a9565b005b6100c460048036038101906100bf9190610ce1565b610484565b005b3480156100d1575f80fd5b506100da610686565b6040516100e79190610d1b565b60405180910390f35b3480156100fb575f80fd5b5061011660048036038101906101119190610ce1565b61068c565b604051610127959493929190610e17565b60405180910390f35b34801561013b575f80fd5b5061014461076f565b6040516101519190611012565b60405180910390f35b348015610165575f80fd5b50610180600480360381019061017b9190611032565b61093d565b005b34801561018d575f80fd5b506101a860048036038101906101a3919061119c565b610ac0565b005b5f60015467ffffffffffffffff8111156101c7576101c6611078565b5b60405190808252806020026020018201604052801561020057816020015b6101ed610c5a565b8152602001906001900390816101e55790505b5090505f5b60015481101561036e575f808281526020019081526020015f206040518060a00160405290815f820154815260200160018201805461024390611223565b80601f016020809104026020016040519081016040528092919081815260200182805461026f90611223565b80156102ba5780601f10610291576101008083540402835291602001916102ba565b820191905f5260205f20905b81548152906001019060200180831161029d57829003601f168201915b5050505050815260200160028201548152602001600382015f9054906101000a900473ffffffffffffffffffffffffffffffffffffffff1673ffffffffffffffffffffffffffffffffffffffff1673ffffffffffffffffffffffffffffffffffffffff1681526020016003820160149054906101000a900460ff1615151515815250508282815181106103505761034f611253565b5b60200260200101819052508080610366906112ad565b915050610205565b507f7d10b5dcc22e14c43ef753acabb821e339b10c0d8d2caef2fc24ed4be5a742628160405161039e9190611012565b60405180910390a150565b5f4790505f81116103ef576040517f08c379a00000000000000000000000000000000000000000000000000000000081526004016103e69061133e565b60405180910390fd5b3373ffffffffffffffffffffffffffffffffffffffff166108fc8290811502906040515f60405180830381858888f19350505050158015610432573d5f803e3d5ffd5b503373ffffffffffffffffffffffffffffffffffffffff167feaff4b37086828766ad3268786972c0cd24259d4c87a80f9d3963a3c3d999b0d826040516104799190610d1b565b60405180910390a250565b8060015481106104c9576040517f08c379a00000000000000000000000000000000000000000000000000000000081526004016104c0906113a6565b60405180910390fd5b5f805f8481526020019081526020015f2090508060030160149054906101000a900460ff161561052e576040517f08c379a00000000000000000000000000000000000000000000000000000000081526004016105259061140e565b60405180910390fd5b8060020154341015610575576040517f08c379a000000000000000000000000000000000000000000000000000000000815260040161056c90611476565b60405180910390fd5b60018160030160146101000a81548160ff021916908315150217905550806003015f9054906101000a900473ffffffffffffffffffffffffffffffffffffffff1673ffffffffffffffffffffffffffffffffffffffff166108fc3490811502906040515f60405180830381858888f193505050501580156105f8573d5f803e3d5ffd5b503373ffffffffffffffffffffffffffffffffffffffff167f9ad4ecfaf27ea0cbeebee0ed92fe15c8a84975f1e3d45ccfc526d7751dcf98ff8460405161063f9190610d1b565b60405180910390a27f44141b6dc680bc00ddff5c5fd4242067e0c3627b181944fa6d4cc09a0b308b52836001604051610679929190611494565b60405180910390a1505050565b60015481565b5f602052805f5260405f205f91509050805f0154908060010180546106b090611223565b80601f01602080910402602001604051908101604052809291908181526020018280546106dc90611223565b80156107275780601f106106fe57610100808354040283529160200191610727565b820191905f5260205f20905b81548152906001019060200180831161070a57829003601f168201915b505050505090806002015490806003015f9054906101000a900473ffffffffffffffffffffffffffffffffffffffff16908060030160149054906101000a900460ff16905085565b60605f60015467ffffffffffffffff81111561078e5761078d611078565b5b6040519080825280602002602001820160405280156107c757816020015b6107b4610c5a565b8152602001906001900390816107ac5790505b5090505f5b600154811015610935575f808281526020019081526020015f206040518060a00160405290815f820154815260200160018201805461080a90611223565b80601f016020809104026020016040519081016040528092919081815260200182805461083690611223565b80156108815780601f1061085857610100808354040283529160200191610881565b820191905f5260205f20905b81548152906001019060200180831161086457829003601f168201915b5050505050815260200160028201548152602001600382015f9054906101000a900473ffffffffffffffffffffffffffffffffffffffff1673ffffffffffffffffffffffffffffffffffffffff1673ffffffffffffffffffffffffffffffffffffffff1681526020016003820160149054906101000a900460ff16151515158152505082828151811061091757610916611253565b5b6020026020010181905250808061092d906112ad565b9150506107cc565b508091505090565b816001548110610982576040517f08c379a0000000000000000000000000000000000000000000000000000000008152600401610979906113a6565b60405180910390fd5b5f805f8581526020019081526020015f209050806003015f9054906101000a900473ffffffffffffffffffffffffffffffffffffffff1673ffffffffffffffffffffffffffffffffffffffff163373ffffffffffffffffffffffffffffffffffffffff1614610a26576040517f08c379a0000000000000000000000000000000000000000000000000000000008152600401610a1d90611505565b60405180910390fd5b8060030160149054906101000a900460ff1615610a78576040517f08c379a0000000000000000000000000000000000000000000000000000000008152600401610a6f9061156d565b60405180910390fd5b8281600201819055507f2632f9f215a9d4e060233752c6b3601cb9bf0075be4af3f004dc9f4742eaf1f38484604051610ab292919061158b565b60405180910390a150505050565b5f8111610b02576040517f08c379a0000000000000000000000000000000000000000000000000000000008152600401610af9906115fc565b60405180910390fd5b5f6040518060a0016040528060015481526020018481526020018381526020013373ffffffffffffffffffffffffffffffffffffffff1681526020015f15158152509050805f8060015481526020019081526020015f205f820151815f01556020820151816001019081610b7691906117b7565b50604082015181600201556060820151816003015f6101000a81548173ffffffffffffffffffffffffffffffffffffffff021916908373ffffffffffffffffffffffffffffffffffffffff16021790555060808201518160030160146101000a81548160ff0219169083151502179055509050503373ffffffffffffffffffffffffffffffffffffffff167f52402cafb2ecec722b103e8f203f83362148c168659dc96678c2c6850d12dd9f6001548585604051610c3693929190611886565b60405180910390a260015f815480929190610c50906112ad565b9190505550505050565b6040518060a001604052805f8152602001606081526020015f81526020015f73ffffffffffffffffffffffffffffffffffffffff1681526020015f151581525090565b5f604051905090565b5f80fd5b5f80fd5b5f819050919050565b610cc081610cae565b8114610cca575f80fd5b50565b5f81359050610cdb81610cb7565b92915050565b5f60208284031215610cf657610cf5610ca6565b5b5f610d0384828501610ccd565b91505092915050565b610d1581610cae565b82525050565b5f602082019050610d2e5f830184610d0c565b92915050565b5f81519050919050565b5f82825260208201905092915050565b5f5b83811015610d6b578082015181840152602081019050610d50565b5f8484015250505050565b5f601f19601f8301169050919050565b5f610d9082610d34565b610d9a8185610d3e565b9350610daa818560208601610d4e565b610db381610d76565b840191505092915050565b5f73ffffffffffffffffffffffffffffffffffffffff82169050919050565b5f610de782610dbe565b9050919050565b610df781610ddd565b82525050565b5f8115159050919050565b610e1181610dfd565b82525050565b5f60a082019050610e2a5f830188610d0c565b8181036020830152610e3c8187610d86565b9050610e4b6040830186610d0c565b610e586060830185610dee565b610e656080830184610e08565b9695505050505050565b5f81519050919050565b5f82825260208201905092915050565b5f819050602082019050919050565b610ea181610cae565b82525050565b5f82825260208201905092915050565b5f610ec182610d34565b610ecb8185610ea7565b9350610edb818560208601610d4e565b610ee481610d76565b840191505092915050565b610ef881610ddd565b82525050565b610f0781610dfd565b82525050565b5f60a083015f830151610f225f860182610e98565b5060208301518482036020860152610f3a8282610eb7565b9150506040830151610f4f6040860182610e98565b506060830151610f626060860182610eef565b506080830151610f756080860182610efe565b508091505092915050565b5f610f8b8383610f0d565b905092915050565b5f602082019050919050565b5f610fa982610e6f565b610fb38185610e79565b935083602082028501610fc585610e89565b805f5b858110156110005784840389528151610fe18582610f80565b9450610fec83610f93565b925060208a01995050600181019050610fc8565b50829750879550505050505092915050565b5f6020820190508181035f83015261102a8184610f9f565b905092915050565b5f806040838503121561104857611047610ca6565b5b5f61105585828601610ccd565b925050602061106685828601610ccd565b9150509250929050565b5f80fd5b5f80fd5b7f4e487b71000000000000000000000000000000000000000000000000000000005f52604160045260245ffd5b6110ae82610d76565b810181811067ffffffffffffffff821117156110cd576110cc611078565b5b80604052505050565b5f6110df610c9d565b90506110eb82826110a5565b919050565b5f67ffffffffffffffff82111561110a57611109611078565b5b61111382610d76565b9050602081019050919050565b828183375f83830152505050565b5f61114061113b846110f0565b6110d6565b90508281526020810184848401111561115c5761115b611074565b5b611167848285611120565b509392505050565b5f82601f83011261118357611182611070565b5b813561119384826020860161112e565b91505092915050565b5f80604083850312156111b2576111b1610ca6565b5b5f83013567ffffffffffffffff8111156111cf576111ce610caa565b5b6111db8582860161116f565b92505060206111ec85828601610ccd565b9150509250929050565b7f4e487b71000000000000000000000000000000000000000000000000000000005f52602260045260245ffd5b5f600282049050600182168061123a57607f821691505b60208210810361124d5761124c6111f6565b5b50919050565b7f4e487b71000000000000000000000000000000000000000000000000000000005f52603260045260245ffd5b7f4e487b71000000000000000000000000000000000000000000000000000000005f52601160045260245ffd5b5f6112b782610cae565b91507fffffffffffffffffffffffffffffffffffffffffffffffffffffffffffffffff82036112e9576112e8611280565b5b600182019050919050565b7f4e6f2066756e647320746f2077697468647261770000000000000000000000005f82015250565b5f611328601483610d3e565b9150611333826112f4565b602082019050919050565b5f6020820190508181035f8301526113558161131c565b9050919050565b7f50726f6475637420646f6573206e6f74206578697374000000000000000000005f82015250565b5f611390601683610d3e565b915061139b8261135c565b602082019050919050565b5f6020820190508181035f8301526113bd81611384565b9050919050565b7f50726f6475637420616c726561647920736f6c640000000000000000000000005f82015250565b5f6113f8601483610d3e565b9150611403826113c4565b602082019050919050565b5f6020820190508181035f830152611425816113ec565b9050919050565b7f496e73756666696369656e74207061796d656e740000000000000000000000005f82015250565b5f611460601483610d3e565b915061146b8261142c565b602082019050919050565b5f6020820190508181035f83015261148d81611454565b9050919050565b5f6040820190506114a75f830185610d0c565b6114b46020830184610e08565b9392505050565b7f4f6e6c792073656c6c65722063616e20757064617465207072696365000000005f82015250565b5f6114ef601c83610d3e565b91506114fa826114bb565b602082019050919050565b5f6020820190508181035f83015261151c816114e3565b9050919050565b7f43616e6e6f742075706461746520736f6c642070726f647563740000000000005f82015250565b5f611557601a83610d3e565b915061156282611523565b602082019050919050565b5f6020820190508181035f8301526115848161154b565b9050919050565b5f60408201905061159e5f830185610d0c565b6115ab6020830184610d0c565b9392505050565b7f5072696365206d7573742062652067726561746572207468616e207a65726f005f82015250565b5f6115e6601f83610d3e565b91506115f1826115b2565b602082019050919050565b5f6020820190508181035f830152611613816115da565b9050919050565b5f819050815f5260205f209050919050565b5f6020601f8301049050919050565b5f82821b905092915050565b5f600883026116767fffffffffffffffffffffffffffffffffffffffffffffffffffffffffffffffff8261163b565b611680868361163b565b95508019841693508086168417925050509392505050565b5f819050919050565b5f6116bb6116b66116b184610cae565b611698565b610cae565b9050919050565b5f819050919050565b6116d4836116a1565b6116e86116e0826116c2565b848454611647565b825550505050565b5f90565b6116fc6116f0565b6117078184846116cb565b505050565b5b8181101561172a5761171f5f826116f4565b60018101905061170d565b5050565b601f82111561176f576117408161161a565b6117498461162c565b81016020851015611758578190505b61176c6117648561162c565b83018261170c565b50505b505050565b5f82821c905092915050565b5f61178f5f1984600802611774565b1980831691505092915050565b5f6117a78383611780565b9150826002028217905092915050565b6117c082610d34565b67ffffffffffffffff8111156117d9576117d8611078565b5b6117e38254611223565b6117ee82828561172e565b5f60209050601f83116001811461181f575f841561180d578287015190505b611817858261179c565b86555061187e565b601f19841661182d8661161a565b5f5b828110156118545784890151825560018201915060208501945060208101905061182f565b86831015611871578489015161186d601f891682611780565b8355505b6001600288020188555050505b505050505050565b5f6060820190506118995f830186610d0c565b81810360208301526118ab8185610d86565b90506118ba6040830184610d0c565b94935050505056fea264697066735822122038bae49f1e7d373dc020ade111cc8a210f17091cad1719623afe6f9c517be1e064736f6c63430008150033",
  "immutableReferences": {},
  "source": "// SPDX-License-Identifier: MIT\r\npragma solidity ^0.8.0;\r\n\r\ncontract ProductMarketplace {\r\n\r\n    // Struct definition: Product\r\n    struct Product {\r\n        uint256 id;\r\n        string name;\r\n        uint256 price;\r\n        address payable seller;\r\n        bool isSold;\r\n    }\r\n\r\n    // State variables\r\n    mapping(uint256 => Product) public products;\r\n    uint256 public nextProductId;\r\n\r\n    // Events\r\n    event ProductAdded(uint256 productId, string name, uint256 price, address indexed seller);\r\n    event ProductPurchased(uint256 productId, address indexed buyer);\r\n    event ProductPriceUpdated(uint256 productId, uint256 newPrice);\r\n    event ProductSoldStatusChanged(uint256 productId, bool isSold);\r\n    event FundsWithdrawn(address indexed seller, uint256 amount);\r\n    event ProductsFetched(Product[] products);\r\n\r\n    // Modifier to check valid product\r\n    modifier validProduct(uint256 productId) {\r\n        require(productId < nextProductId, \"Product does not exist\");\r\n        _;\r\n    }\r\n\r\n    // External function to add a product (state-changing)\r\n    function addProduct(string memory _name, uint256 _price) external {\r\n        require(_price > 0, \"Price must be greater than zero\");\r\n\r\n        Product memory newProduct = Product({\r\n            id: nextProductId,\r\n            name: _name,\r\n            price: _price,\r\n            seller: payable(msg.sender),\r\n            isSold: false\r\n        });\r\n\r\n        products[nextProductId] = newProduct;\r\n        emit ProductAdded(nextProductId, _name, _price, msg.sender);\r\n        nextProductId++;\r\n    }\r\n\r\n    // Public function to purchase a product (requires payment, state-changing)\r\n    function purchaseProduct(uint256 productId) public payable validProduct(productId) {\r\n        Product storage product = products[productId];\r\n        require(!product.isSold, \"Product already sold\");\r\n        require(msg.value >= product.price, \"Insufficient payment\");\r\n\r\n        product.isSold = true;\r\n        product.seller.transfer(msg.value);\r\n\r\n        emit ProductPurchased(productId, msg.sender);\r\n        emit ProductSoldStatusChanged(productId, true);\r\n    }\r\n\r\n    // Public function to update product price (state-changing)\r\n    function updateProductPrice(uint256 productId, uint256 _newPrice) public validProduct(productId) {\r\n        Product storage product = products[productId];\r\n        require(msg.sender == product.seller, \"Only seller can update price\");\r\n        require(!product.isSold, \"Cannot update sold product\");\r\n\r\n        product.price = _newPrice;\r\n        emit ProductPriceUpdated(productId, _newPrice);\r\n    }\r\n\r\n    // Public function to withdraw funds (state-changing)\r\n    function withdrawFunds() public {\r\n        uint256 balance = address(this).balance;\r\n        require(balance > 0, \"No funds to withdraw\");\r\n\r\n        payable(msg.sender).transfer(balance);\r\n        emit FundsWithdrawn(msg.sender, balance);\r\n    }\r\n\r\n    function getAllProducts() public {\r\n        Product[] memory allProducts = new Product[](nextProductId);\r\n    \r\n        for (uint256 i = 0; i < nextProductId; i++) {\r\n            allProducts[i] = products[i];\r\n        }\r\n\r\n        emit ProductsFetched(allProducts);\r\n    }\r\n\r\n    function fetchAllProducts() external view returns (Product[] memory) {\r\n    Product[] memory allProducts = new Product[](nextProductId);\r\n    \r\n    for (uint256 i = 0; i < nextProductId; i++) {\r\n        allProducts[i] = products[i];\r\n    }\r\n\r\n    return allProducts; // Return the products to the caller\r\n\r\n}\r\n}\r\n",
  "sourcePath": "C:\\Users\\Asus\\Desktop\\mine\\blockchain\\ass3\\contracts\\Products.sol",
  "compiler": {
    "name": "solc",
    "version": "0.8.21+commit.d9974bed.Emscripten.clang"
  },
  "schemaVersion": "3.4.16",
  "updatedAt": "2024-10-12T07:30:57.192Z",
  "networkType": "ethereum",
  "devdoc": {
    "kind": "dev",
    "methods": {},
    "version": 1
  },
  "userdoc": {
    "kind": "user",
    "methods": {},
    "version": 1
  }
}